{
	"test/HelloWorld.sol": {
		"HelloWorld": {
			"abi": [
				{
					"inputs": [
						{
							"internalType": "uint256",
							"name": "_var2",
							"type": "uint256"
						}
					],
					"stateMutability": "nonpayable",
					"type": "constructor"
				},
				{
					"inputs": [],
					"name": "getNumber",
					"outputs": [
						{
							"internalType": "uint256",
							"name": "",
							"type": "uint256"
						}
					],
					"stateMutability": "pure",
					"type": "function"
				},
				{
					"inputs": [],
					"name": "getVar",
					"outputs": [
						{
							"internalType": "uint256",
							"name": "",
							"type": "uint256"
						}
					],
					"stateMutability": "view",
					"type": "function"
				},
				{
					"inputs": [
						{
							"internalType": "uint256",
							"name": "_var2",
							"type": "uint256"
						}
					],
					"name": "setVar",
					"outputs": [],
					"stateMutability": "nonpayable",
					"type": "function"
				},
				{
					"inputs": [],
					"name": "var1",
					"outputs": [
						{
							"internalType": "string",
							"name": "",
							"type": "string"
						}
					],
					"stateMutability": "view",
					"type": "function"
				}
			],
			"devdoc": {
				"kind": "dev",
				"methods": {},
				"version": 1
			},
			"evm": {
				"assembly": "    /* \"test/HelloWorld.sol\":53:427  contract HelloWorld {... */\n  mstore(0x40, 0x80)\n    /* \"test/HelloWorld.sol\":79:115  string public var1 = \"hello biaggio\" */\n  mload(0x40)\n  dup1\n  0x40\n  add\n  0x40\n  mstore\n  dup1\n  0x0d\n  dup2\n  mstore\n  0x20\n  add\n  0x68656c6c6f206269616767696f00000000000000000000000000000000000000\n  dup2\n  mstore\n  pop\n  0x00\n  swap1\n  dup1\n  mload\n  swap1\n  0x20\n  add\n  swap1\n  tag_1\n  swap3\n  swap2\n  swap1\n  tag_2\n  jump\t// in\ntag_1:\n  pop\n    /* \"test/HelloWorld.sol\":139:197  constructor (uint256 _var2)    {... */\n  callvalue\n  dup1\n  iszero\n  tag_3\n  jumpi\n  0x00\n  dup1\n  revert\ntag_3:\n  pop\n  mload(0x40)\n  sub(codesize, bytecodeSize)\n  dup1\n  bytecodeSize\n  dup4\n  codecopy\n  dup2\n  dup2\n  add\n  0x40\n  mstore\n  dup2\n  add\n  swap1\n  tag_4\n  swap2\n  swap1\n  tag_5\n  jump\t// in\ntag_4:\n    /* \"test/HelloWorld.sol\":186:191  _var2 */\n  dup1\n    /* \"test/HelloWorld.sol\":179:183  var2 */\n  0x01\n    /* \"test/HelloWorld.sol\":179:191  var2 = _var2 */\n  dup2\n  swap1\n  sstore\n  pop\n    /* \"test/HelloWorld.sol\":139:197  constructor (uint256 _var2)    {... */\n  pop\n    /* \"test/HelloWorld.sol\":53:427  contract HelloWorld {... */\n  jump(tag_8)\ntag_2:\n  dup3\n  dup1\n  sload\n  tag_9\n  swap1\n  tag_10\n  jump\t// in\ntag_9:\n  swap1\n  0x00\n  mstore\n  keccak256(0x00, 0x20)\n  swap1\n  0x1f\n  add\n  0x20\n  swap1\n  div\n  dup2\n  add\n  swap3\n  dup3\n  tag_12\n  jumpi\n  0x00\n  dup6\n  sstore\n  jump(tag_11)\ntag_12:\n  dup3\n  0x1f\n  lt\n  tag_13\n  jumpi\n  dup1\n  mload\n  not(0xff)\n  and\n  dup4\n  dup1\n  add\n  or\n  dup6\n  sstore\n  jump(tag_11)\ntag_13:\n  dup3\n  dup1\n  add\n  0x01\n  add\n  dup6\n  sstore\n  dup3\n  iszero\n  tag_11\n  jumpi\n  swap2\n  dup3\n  add\ntag_14:\n  dup3\n  dup2\n  gt\n  iszero\n  tag_15\n  jumpi\n  dup3\n  mload\n  dup3\n  sstore\n  swap2\n  0x20\n  add\n  swap2\n  swap1\n  0x01\n  add\n  swap1\n  jump(tag_14)\ntag_15:\ntag_11:\n  pop\n  swap1\n  pop\n  tag_16\n  swap2\n  swap1\n  tag_17\n  jump\t// in\ntag_16:\n  pop\n  swap1\n  jump\t// out\ntag_17:\ntag_18:\n  dup1\n  dup3\n  gt\n  iszero\n  tag_19\n  jumpi\n  0x00\n  dup2\n  0x00\n  swap1\n  sstore\n  pop\n  0x01\n  add\n  jump(tag_18)\ntag_19:\n  pop\n  swap1\n  jump\t// out\n    /* \"#utility.yul\":7:150   */\ntag_21:\n    /* \"#utility.yul\":64:69   */\n  0x00\n    /* \"#utility.yul\":95:101   */\n  dup2\n    /* \"#utility.yul\":89:102   */\n  mload\n    /* \"#utility.yul\":80:102   */\n  swap1\n  pop\n    /* \"#utility.yul\":111:144   */\n  tag_23\n    /* \"#utility.yul\":138:143   */\n  dup2\n    /* \"#utility.yul\":111:144   */\n  tag_24\n  jump\t// in\ntag_23:\n    /* \"#utility.yul\":7:150   */\n  swap3\n  swap2\n  pop\n  pop\n  jump\t// out\n    /* \"#utility.yul\":156:507   */\ntag_5:\n    /* \"#utility.yul\":226:232   */\n  0x00\n    /* \"#utility.yul\":275:277   */\n  0x20\n    /* \"#utility.yul\":263:272   */\n  dup3\n    /* \"#utility.yul\":254:261   */\n  dup5\n    /* \"#utility.yul\":250:273   */\n  sub\n    /* \"#utility.yul\":246:278   */\n  slt\n    /* \"#utility.yul\":243:362   */\n  iszero\n  tag_26\n  jumpi\n    /* \"#utility.yul\":281:360   */\n  tag_27\n  tag_28\n  jump\t// in\ntag_27:\n    /* \"#utility.yul\":243:362   */\ntag_26:\n    /* \"#utility.yul\":401:402   */\n  0x00\n    /* \"#utility.yul\":426:490   */\n  tag_29\n    /* \"#utility.yul\":482:489   */\n  dup5\n    /* \"#utility.yul\":473:479   */\n  dup3\n    /* \"#utility.yul\":462:471   */\n  dup6\n    /* \"#utility.yul\":458:480   */\n  add\n    /* \"#utility.yul\":426:490   */\n  tag_21\n  jump\t// in\ntag_29:\n    /* \"#utility.yul\":416:490   */\n  swap2\n  pop\n    /* \"#utility.yul\":372:500   */\n  pop\n    /* \"#utility.yul\":156:507   */\n  swap3\n  swap2\n  pop\n  pop\n  jump\t// out\n    /* \"#utility.yul\":594:671   */\ntag_32:\n    /* \"#utility.yul\":631:638   */\n  0x00\n    /* \"#utility.yul\":660:665   */\n  dup2\n    /* \"#utility.yul\":649:665   */\n  swap1\n  pop\n    /* \"#utility.yul\":594:671   */\n  swap2\n  swap1\n  pop\n  jump\t// out\n    /* \"#utility.yul\":677:997   */\ntag_10:\n    /* \"#utility.yul\":721:727   */\n  0x00\n    /* \"#utility.yul\":758:759   */\n  0x02\n    /* \"#utility.yul\":752:756   */\n  dup3\n    /* \"#utility.yul\":748:760   */\n  div\n    /* \"#utility.yul\":738:760   */\n  swap1\n  pop\n    /* \"#utility.yul\":805:806   */\n  0x01\n    /* \"#utility.yul\":799:803   */\n  dup3\n    /* \"#utility.yul\":795:807   */\n  and\n    /* \"#utility.yul\":826:844   */\n  dup1\n    /* \"#utility.yul\":816:897   */\n  tag_35\n  jumpi\n    /* \"#utility.yul\":882:886   */\n  0x7f\n    /* \"#utility.yul\":874:880   */\n  dup3\n    /* \"#utility.yul\":870:887   */\n  and\n    /* \"#utility.yul\":860:887   */\n  swap2\n  pop\n    /* \"#utility.yul\":816:897   */\ntag_35:\n    /* \"#utility.yul\":944:946   */\n  0x20\n    /* \"#utility.yul\":936:942   */\n  dup3\n    /* \"#utility.yul\":933:947   */\n  lt\n    /* \"#utility.yul\":913:931   */\n  dup2\n    /* \"#utility.yul\":910:948   */\n  eq\n    /* \"#utility.yul\":907:991   */\n  iszero\n  tag_36\n  jumpi\n    /* \"#utility.yul\":963:981   */\n  tag_37\n  tag_38\n  jump\t// in\ntag_37:\n    /* \"#utility.yul\":907:991   */\ntag_36:\n    /* \"#utility.yul\":728:997   */\n  pop\n    /* \"#utility.yul\":677:997   */\n  swap2\n  swap1\n  pop\n  jump\t// out\n    /* \"#utility.yul\":1003:1183   */\ntag_38:\n    /* \"#utility.yul\":1051:1128   */\n  0x4e487b7100000000000000000000000000000000000000000000000000000000\n    /* \"#utility.yul\":1048:1049   */\n  0x00\n    /* \"#utility.yul\":1041:1129   */\n  mstore\n    /* \"#utility.yul\":1148:1152   */\n  0x22\n    /* \"#utility.yul\":1145:1146   */\n  0x04\n    /* \"#utility.yul\":1138:1153   */\n  mstore\n    /* \"#utility.yul\":1172:1176   */\n  0x24\n    /* \"#utility.yul\":1169:1170   */\n  0x00\n    /* \"#utility.yul\":1162:1177   */\n  revert\n    /* \"#utility.yul\":1312:1429   */\ntag_28:\n    /* \"#utility.yul\":1421:1422   */\n  0x00\n    /* \"#utility.yul\":1418:1419   */\n  dup1\n    /* \"#utility.yul\":1411:1423   */\n  revert\n    /* \"#utility.yul\":1435:1557   */\ntag_24:\n    /* \"#utility.yul\":1508:1532   */\n  tag_44\n    /* \"#utility.yul\":1526:1531   */\n  dup2\n    /* \"#utility.yul\":1508:1532   */\n  tag_32\n  jump\t// in\ntag_44:\n    /* \"#utility.yul\":1501:1506   */\n  dup2\n    /* \"#utility.yul\":1498:1533   */\n  eq\n    /* \"#utility.yul\":1488:1551   */\n  tag_45\n  jumpi\n    /* \"#utility.yul\":1547:1548   */\n  0x00\n    /* \"#utility.yul\":1544:1545   */\n  dup1\n    /* \"#utility.yul\":1537:1549   */\n  revert\n    /* \"#utility.yul\":1488:1551   */\ntag_45:\n    /* \"#utility.yul\":1435:1557   */\n  pop\n  jump\t// out\n    /* \"test/HelloWorld.sol\":53:427  contract HelloWorld {... */\ntag_8:\n  dataSize(sub_0)\n  dup1\n  dataOffset(sub_0)\n  0x00\n  codecopy\n  0x00\n  return\nstop\n\nsub_0: assembly {\n        /* \"test/HelloWorld.sol\":53:427  contract HelloWorld {... */\n      mstore(0x40, 0x80)\n      callvalue\n      dup1\n      iszero\n      tag_1\n      jumpi\n      0x00\n      dup1\n      revert\n    tag_1:\n      pop\n      jumpi(tag_2, lt(calldatasize, 0x04))\n      shr(0xe0, calldataload(0x00))\n      dup1\n      0x3a885d79\n      eq\n      tag_3\n      jumpi\n      dup1\n      0x477a5c98\n      eq\n      tag_4\n      jumpi\n      dup1\n      0x67e919b6\n      eq\n      tag_5\n      jumpi\n      dup1\n      0xf2c9ecd8\n      eq\n      tag_6\n      jumpi\n    tag_2:\n      0x00\n      dup1\n      revert\n        /* \"test/HelloWorld.sol\":202:268  function setVar(uint256 _var2) public {... */\n    tag_3:\n      tag_7\n      0x04\n      dup1\n      calldatasize\n      sub\n      dup2\n      add\n      swap1\n      tag_8\n      swap2\n      swap1\n      tag_9\n      jump\t// in\n    tag_8:\n      tag_10\n      jump\t// in\n    tag_7:\n      stop\n        /* \"test/HelloWorld.sol\":273:346  function getVar() public view returns (uint256){... */\n    tag_4:\n      tag_11\n      tag_12\n      jump\t// in\n    tag_11:\n      mload(0x40)\n      tag_13\n      swap2\n      swap1\n      tag_14\n      jump\t// in\n    tag_13:\n      mload(0x40)\n      dup1\n      swap2\n      sub\n      swap1\n      return\n        /* \"test/HelloWorld.sol\":79:115  string public var1 = \"hello biaggio\" */\n    tag_5:\n      tag_15\n      tag_16\n      jump\t// in\n    tag_15:\n      mload(0x40)\n      tag_17\n      swap2\n      swap1\n      tag_18\n      jump\t// in\n    tag_17:\n      mload(0x40)\n      dup1\n      swap2\n      sub\n      swap1\n      return\n        /* \"test/HelloWorld.sol\":351:425  function getNumber() public pure returns (uint256){... */\n    tag_6:\n      tag_19\n      tag_20\n      jump\t// in\n    tag_19:\n      mload(0x40)\n      tag_21\n      swap2\n      swap1\n      tag_14\n      jump\t// in\n    tag_21:\n      mload(0x40)\n      dup1\n      swap2\n      sub\n      swap1\n      return\n        /* \"test/HelloWorld.sol\":202:268  function setVar(uint256 _var2) public {... */\n    tag_10:\n        /* \"test/HelloWorld.sol\":257:262  _var2 */\n      dup1\n        /* \"test/HelloWorld.sol\":250:254  var2 */\n      0x01\n        /* \"test/HelloWorld.sol\":250:262  var2 = _var2 */\n      dup2\n      swap1\n      sstore\n      pop\n        /* \"test/HelloWorld.sol\":202:268  function setVar(uint256 _var2) public {... */\n      pop\n      jump\t// out\n        /* \"test/HelloWorld.sol\":273:346  function getVar() public view returns (uint256){... */\n    tag_12:\n        /* \"test/HelloWorld.sol\":312:319  uint256 */\n      0x00\n        /* \"test/HelloWorld.sol\":336:340  var2 */\n      sload(0x01)\n        /* \"test/HelloWorld.sol\":329:340  return var2 */\n      swap1\n      pop\n        /* \"test/HelloWorld.sol\":273:346  function getVar() public view returns (uint256){... */\n      swap1\n      jump\t// out\n        /* \"test/HelloWorld.sol\":79:115  string public var1 = \"hello biaggio\" */\n    tag_16:\n      0x00\n      dup1\n      sload\n      tag_24\n      swap1\n      tag_25\n      jump\t// in\n    tag_24:\n      dup1\n      0x1f\n      add\n      0x20\n      dup1\n      swap2\n      div\n      mul\n      0x20\n      add\n      mload(0x40)\n      swap1\n      dup2\n      add\n      0x40\n      mstore\n      dup1\n      swap3\n      swap2\n      swap1\n      dup2\n      dup2\n      mstore\n      0x20\n      add\n      dup3\n      dup1\n      sload\n      tag_26\n      swap1\n      tag_25\n      jump\t// in\n    tag_26:\n      dup1\n      iszero\n      tag_27\n      jumpi\n      dup1\n      0x1f\n      lt\n      tag_28\n      jumpi\n      0x0100\n      dup1\n      dup4\n      sload\n      div\n      mul\n      dup4\n      mstore\n      swap2\n      0x20\n      add\n      swap2\n      jump(tag_27)\n    tag_28:\n      dup3\n      add\n      swap2\n      swap1\n      0x00\n      mstore\n      keccak256(0x00, 0x20)\n      swap1\n    tag_29:\n      dup2\n      sload\n      dup2\n      mstore\n      swap1\n      0x01\n      add\n      swap1\n      0x20\n      add\n      dup1\n      dup4\n      gt\n      tag_29\n      jumpi\n      dup3\n      swap1\n      sub\n      0x1f\n      and\n      dup3\n      add\n      swap2\n    tag_27:\n      pop\n      pop\n      pop\n      pop\n      pop\n      dup2\n      jump\t// out\n        /* \"test/HelloWorld.sol\":351:425  function getNumber() public pure returns (uint256){... */\n    tag_20:\n        /* \"test/HelloWorld.sol\":393:400  uint256 */\n      0x00\n        /* \"test/HelloWorld.sol\":417:419  50 */\n      0x32\n        /* \"test/HelloWorld.sol\":410:419  return 50 */\n      swap1\n      pop\n        /* \"test/HelloWorld.sol\":351:425  function getNumber() public pure returns (uint256){... */\n      swap1\n      jump\t// out\n        /* \"#utility.yul\":7:146   */\n    tag_32:\n        /* \"#utility.yul\":53:58   */\n      0x00\n        /* \"#utility.yul\":91:97   */\n      dup2\n        /* \"#utility.yul\":78:98   */\n      calldataload\n        /* \"#utility.yul\":69:98   */\n      swap1\n      pop\n        /* \"#utility.yul\":107:140   */\n      tag_34\n        /* \"#utility.yul\":134:139   */\n      dup2\n        /* \"#utility.yul\":107:140   */\n      tag_35\n      jump\t// in\n    tag_34:\n        /* \"#utility.yul\":7:146   */\n      swap3\n      swap2\n      pop\n      pop\n      jump\t// out\n        /* \"#utility.yul\":152:481   */\n    tag_9:\n        /* \"#utility.yul\":211:217   */\n      0x00\n        /* \"#utility.yul\":260:262   */\n      0x20\n        /* \"#utility.yul\":248:257   */\n      dup3\n        /* \"#utility.yul\":239:246   */\n      dup5\n        /* \"#utility.yul\":235:258   */\n      sub\n        /* \"#utility.yul\":231:263   */\n      slt\n        /* \"#utility.yul\":228:347   */\n      iszero\n      tag_37\n      jumpi\n        /* \"#utility.yul\":266:345   */\n      tag_38\n      tag_39\n      jump\t// in\n    tag_38:\n        /* \"#utility.yul\":228:347   */\n    tag_37:\n        /* \"#utility.yul\":386:387   */\n      0x00\n        /* \"#utility.yul\":411:464   */\n      tag_40\n        /* \"#utility.yul\":456:463   */\n      dup5\n        /* \"#utility.yul\":447:453   */\n      dup3\n        /* \"#utility.yul\":436:445   */\n      dup6\n        /* \"#utility.yul\":432:454   */\n      add\n        /* \"#utility.yul\":411:464   */\n      tag_32\n      jump\t// in\n    tag_40:\n        /* \"#utility.yul\":401:464   */\n      swap2\n      pop\n        /* \"#utility.yul\":357:474   */\n      pop\n        /* \"#utility.yul\":152:481   */\n      swap3\n      swap2\n      pop\n      pop\n      jump\t// out\n        /* \"#utility.yul\":487:851   */\n    tag_41:\n        /* \"#utility.yul\":575:578   */\n      0x00\n        /* \"#utility.yul\":603:642   */\n      tag_43\n        /* \"#utility.yul\":636:641   */\n      dup3\n        /* \"#utility.yul\":603:642   */\n      tag_44\n      jump\t// in\n    tag_43:\n        /* \"#utility.yul\":658:729   */\n      tag_45\n        /* \"#utility.yul\":722:728   */\n      dup2\n        /* \"#utility.yul\":717:720   */\n      dup6\n        /* \"#utility.yul\":658:729   */\n      tag_46\n      jump\t// in\n    tag_45:\n        /* \"#utility.yul\":651:729   */\n      swap4\n      pop\n        /* \"#utility.yul\":738:790   */\n      tag_47\n        /* \"#utility.yul\":783:789   */\n      dup2\n        /* \"#utility.yul\":778:781   */\n      dup6\n        /* \"#utility.yul\":771:775   */\n      0x20\n        /* \"#utility.yul\":764:769   */\n      dup7\n        /* \"#utility.yul\":760:776   */\n      add\n        /* \"#utility.yul\":738:790   */\n      tag_48\n      jump\t// in\n    tag_47:\n        /* \"#utility.yul\":815:844   */\n      tag_49\n        /* \"#utility.yul\":837:843   */\n      dup2\n        /* \"#utility.yul\":815:844   */\n      tag_50\n      jump\t// in\n    tag_49:\n        /* \"#utility.yul\":810:813   */\n      dup5\n        /* \"#utility.yul\":806:845   */\n      add\n        /* \"#utility.yul\":799:845   */\n      swap2\n      pop\n        /* \"#utility.yul\":579:851   */\n      pop\n        /* \"#utility.yul\":487:851   */\n      swap3\n      swap2\n      pop\n      pop\n      jump\t// out\n        /* \"#utility.yul\":857:975   */\n    tag_51:\n        /* \"#utility.yul\":944:968   */\n      tag_53\n        /* \"#utility.yul\":962:967   */\n      dup2\n        /* \"#utility.yul\":944:968   */\n      tag_54\n      jump\t// in\n    tag_53:\n        /* \"#utility.yul\":939:942   */\n      dup3\n        /* \"#utility.yul\":932:969   */\n      mstore\n        /* \"#utility.yul\":857:975   */\n      pop\n      pop\n      jump\t// out\n        /* \"#utility.yul\":981:1294   */\n    tag_18:\n        /* \"#utility.yul\":1094:1098   */\n      0x00\n        /* \"#utility.yul\":1132:1134   */\n      0x20\n        /* \"#utility.yul\":1121:1130   */\n      dup3\n        /* \"#utility.yul\":1117:1135   */\n      add\n        /* \"#utility.yul\":1109:1135   */\n      swap1\n      pop\n        /* \"#utility.yul\":1181:1190   */\n      dup2\n        /* \"#utility.yul\":1175:1179   */\n      dup2\n        /* \"#utility.yul\":1171:1191   */\n      sub\n        /* \"#utility.yul\":1167:1168   */\n      0x00\n        /* \"#utility.yul\":1156:1165   */\n      dup4\n        /* \"#utility.yul\":1152:1169   */\n      add\n        /* \"#utility.yul\":1145:1192   */\n      mstore\n        /* \"#utility.yul\":1209:1287   */\n      tag_56\n        /* \"#utility.yul\":1282:1286   */\n      dup2\n        /* \"#utility.yul\":1273:1279   */\n      dup5\n        /* \"#utility.yul\":1209:1287   */\n      tag_41\n      jump\t// in\n    tag_56:\n        /* \"#utility.yul\":1201:1287   */\n      swap1\n      pop\n        /* \"#utility.yul\":981:1294   */\n      swap3\n      swap2\n      pop\n      pop\n      jump\t// out\n        /* \"#utility.yul\":1300:1522   */\n    tag_14:\n        /* \"#utility.yul\":1393:1397   */\n      0x00\n        /* \"#utility.yul\":1431:1433   */\n      0x20\n        /* \"#utility.yul\":1420:1429   */\n      dup3\n        /* \"#utility.yul\":1416:1434   */\n      add\n        /* \"#utility.yul\":1408:1434   */\n      swap1\n      pop\n        /* \"#utility.yul\":1444:1515   */\n      tag_58\n        /* \"#utility.yul\":1512:1513   */\n      0x00\n        /* \"#utility.yul\":1501:1510   */\n      dup4\n        /* \"#utility.yul\":1497:1514   */\n      add\n        /* \"#utility.yul\":1488:1494   */\n      dup5\n        /* \"#utility.yul\":1444:1515   */\n      tag_51\n      jump\t// in\n    tag_58:\n        /* \"#utility.yul\":1300:1522   */\n      swap3\n      swap2\n      pop\n      pop\n      jump\t// out\n        /* \"#utility.yul\":1609:1708   */\n    tag_44:\n        /* \"#utility.yul\":1661:1667   */\n      0x00\n        /* \"#utility.yul\":1695:1700   */\n      dup2\n        /* \"#utility.yul\":1689:1701   */\n      mload\n        /* \"#utility.yul\":1679:1701   */\n      swap1\n      pop\n        /* \"#utility.yul\":1609:1708   */\n      swap2\n      swap1\n      pop\n      jump\t// out\n        /* \"#utility.yul\":1714:1883   */\n    tag_46:\n        /* \"#utility.yul\":1798:1809   */\n      0x00\n        /* \"#utility.yul\":1832:1838   */\n      dup3\n        /* \"#utility.yul\":1827:1830   */\n      dup3\n        /* \"#utility.yul\":1820:1839   */\n      mstore\n        /* \"#utility.yul\":1872:1876   */\n      0x20\n        /* \"#utility.yul\":1867:1870   */\n      dup3\n        /* \"#utility.yul\":1863:1877   */\n      add\n        /* \"#utility.yul\":1848:1877   */\n      swap1\n      pop\n        /* \"#utility.yul\":1714:1883   */\n      swap3\n      swap2\n      pop\n      pop\n      jump\t// out\n        /* \"#utility.yul\":1889:1966   */\n    tag_54:\n        /* \"#utility.yul\":1926:1933   */\n      0x00\n        /* \"#utility.yul\":1955:1960   */\n      dup2\n        /* \"#utility.yul\":1944:1960   */\n      swap1\n      pop\n        /* \"#utility.yul\":1889:1966   */\n      swap2\n      swap1\n      pop\n      jump\t// out\n        /* \"#utility.yul\":1972:2279   */\n    tag_48:\n        /* \"#utility.yul\":2040:2041   */\n      0x00\n        /* \"#utility.yul\":2050:2163   */\n    tag_65:\n        /* \"#utility.yul\":2064:2070   */\n      dup4\n        /* \"#utility.yul\":2061:2062   */\n      dup2\n        /* \"#utility.yul\":2058:2071   */\n      lt\n        /* \"#utility.yul\":2050:2163   */\n      iszero\n      tag_67\n      jumpi\n        /* \"#utility.yul\":2149:2150   */\n      dup1\n        /* \"#utility.yul\":2144:2147   */\n      dup3\n        /* \"#utility.yul\":2140:2151   */\n      add\n        /* \"#utility.yul\":2134:2152   */\n      mload\n        /* \"#utility.yul\":2130:2131   */\n      dup2\n        /* \"#utility.yul\":2125:2128   */\n      dup5\n        /* \"#utility.yul\":2121:2132   */\n      add\n        /* \"#utility.yul\":2114:2153   */\n      mstore\n        /* \"#utility.yul\":2086:2088   */\n      0x20\n        /* \"#utility.yul\":2083:2084   */\n      dup2\n        /* \"#utility.yul\":2079:2089   */\n      add\n        /* \"#utility.yul\":2074:2089   */\n      swap1\n      pop\n        /* \"#utility.yul\":2050:2163   */\n      jump(tag_65)\n    tag_67:\n        /* \"#utility.yul\":2181:2187   */\n      dup4\n        /* \"#utility.yul\":2178:2179   */\n      dup2\n        /* \"#utility.yul\":2175:2188   */\n      gt\n        /* \"#utility.yul\":2172:2273   */\n      iszero\n      tag_68\n      jumpi\n        /* \"#utility.yul\":2261:2262   */\n      0x00\n        /* \"#utility.yul\":2252:2258   */\n      dup5\n        /* \"#utility.yul\":2247:2250   */\n      dup5\n        /* \"#utility.yul\":2243:2259   */\n      add\n        /* \"#utility.yul\":2236:2263   */\n      mstore\n        /* \"#utility.yul\":2172:2273   */\n    tag_68:\n        /* \"#utility.yul\":2021:2279   */\n      pop\n        /* \"#utility.yul\":1972:2279   */\n      pop\n      pop\n      pop\n      jump\t// out\n        /* \"#utility.yul\":2285:2605   */\n    tag_25:\n        /* \"#utility.yul\":2329:2335   */\n      0x00\n        /* \"#utility.yul\":2366:2367   */\n      0x02\n        /* \"#utility.yul\":2360:2364   */\n      dup3\n        /* \"#utility.yul\":2356:2368   */\n      div\n        /* \"#utility.yul\":2346:2368   */\n      swap1\n      pop\n        /* \"#utility.yul\":2413:2414   */\n      0x01\n        /* \"#utility.yul\":2407:2411   */\n      dup3\n        /* \"#utility.yul\":2403:2415   */\n      and\n        /* \"#utility.yul\":2434:2452   */\n      dup1\n        /* \"#utility.yul\":2424:2505   */\n      tag_70\n      jumpi\n        /* \"#utility.yul\":2490:2494   */\n      0x7f\n        /* \"#utility.yul\":2482:2488   */\n      dup3\n        /* \"#utility.yul\":2478:2495   */\n      and\n        /* \"#utility.yul\":2468:2495   */\n      swap2\n      pop\n        /* \"#utility.yul\":2424:2505   */\n    tag_70:\n        /* \"#utility.yul\":2552:2554   */\n      0x20\n        /* \"#utility.yul\":2544:2550   */\n      dup3\n        /* \"#utility.yul\":2541:2555   */\n      lt\n        /* \"#utility.yul\":2521:2539   */\n      dup2\n        /* \"#utility.yul\":2518:2556   */\n      eq\n        /* \"#utility.yul\":2515:2599   */\n      iszero\n      tag_71\n      jumpi\n        /* \"#utility.yul\":2571:2589   */\n      tag_72\n      tag_73\n      jump\t// in\n    tag_72:\n        /* \"#utility.yul\":2515:2599   */\n    tag_71:\n        /* \"#utility.yul\":2336:2605   */\n      pop\n        /* \"#utility.yul\":2285:2605   */\n      swap2\n      swap1\n      pop\n      jump\t// out\n        /* \"#utility.yul\":2611:2791   */\n    tag_73:\n        /* \"#utility.yul\":2659:2736   */\n      0x4e487b7100000000000000000000000000000000000000000000000000000000\n        /* \"#utility.yul\":2656:2657   */\n      0x00\n        /* \"#utility.yul\":2649:2737   */\n      mstore\n        /* \"#utility.yul\":2756:2760   */\n      0x22\n        /* \"#utility.yul\":2753:2754   */\n      0x04\n        /* \"#utility.yul\":2746:2761   */\n      mstore\n        /* \"#utility.yul\":2780:2784   */\n      0x24\n        /* \"#utility.yul\":2777:2778   */\n      0x00\n        /* \"#utility.yul\":2770:2785   */\n      revert\n        /* \"#utility.yul\":2920:3037   */\n    tag_39:\n        /* \"#utility.yul\":3029:3030   */\n      0x00\n        /* \"#utility.yul\":3026:3027   */\n      dup1\n        /* \"#utility.yul\":3019:3031   */\n      revert\n        /* \"#utility.yul\":3043:3145   */\n    tag_50:\n        /* \"#utility.yul\":3084:3090   */\n      0x00\n        /* \"#utility.yul\":3135:3137   */\n      0x1f\n        /* \"#utility.yul\":3131:3138   */\n      not\n        /* \"#utility.yul\":3126:3128   */\n      0x1f\n        /* \"#utility.yul\":3119:3124   */\n      dup4\n        /* \"#utility.yul\":3115:3129   */\n      add\n        /* \"#utility.yul\":3111:3139   */\n      and\n        /* \"#utility.yul\":3101:3139   */\n      swap1\n      pop\n        /* \"#utility.yul\":3043:3145   */\n      swap2\n      swap1\n      pop\n      jump\t// out\n        /* \"#utility.yul\":3151:3273   */\n    tag_35:\n        /* \"#utility.yul\":3224:3248   */\n      tag_80\n        /* \"#utility.yul\":3242:3247   */\n      dup2\n        /* \"#utility.yul\":3224:3248   */\n      tag_54\n      jump\t// in\n    tag_80:\n        /* \"#utility.yul\":3217:3222   */\n      dup2\n        /* \"#utility.yul\":3214:3249   */\n      eq\n        /* \"#utility.yul\":3204:3267   */\n      tag_81\n      jumpi\n        /* \"#utility.yul\":3263:3264   */\n      0x00\n        /* \"#utility.yul\":3260:3261   */\n      dup1\n        /* \"#utility.yul\":3253:3265   */\n      revert\n        /* \"#utility.yul\":3204:3267   */\n    tag_81:\n        /* \"#utility.yul\":3151:3273   */\n      pop\n      jump\t// out\n\n    auxdata: 0xa26469706673582212202ac2141034f74130699bdc82a078096f1d16cb4effa015aa7140e5ff799b7b2464736f6c63430008070033\n}\n",
				"bytecode": {
					"linkReferences": {},
					"object": "60806040526040518060400160405280600d81526020017f68656c6c6f206269616767696f000000000000000000000000000000000000008152506000908051906020019061004f92919061008b565b5034801561005c57600080fd5b5060405161055c38038061055c833981810160405281019061007e9190610143565b80600181905550506101f7565b8280546100979061017a565b90600052602060002090601f0160209004810192826100b95760008555610100565b82601f106100d257805160ff1916838001178555610100565b82800160010185558215610100579182015b828111156100ff5782518255916020019190600101906100e4565b5b50905061010d9190610111565b5090565b5b8082111561012a576000816000905550600101610112565b5090565b60008151905061013d816101e0565b92915050565b600060208284031215610159576101586101db565b5b60006101678482850161012e565b91505092915050565b6000819050919050565b6000600282049050600182168061019257607f821691505b602082108114156101a6576101a56101ac565b5b50919050565b7f4e487b7100000000000000000000000000000000000000000000000000000000600052602260045260246000fd5b600080fd5b6101e981610170565b81146101f457600080fd5b50565b610356806102066000396000f3fe608060405234801561001057600080fd5b506004361061004c5760003560e01c80633a885d7914610051578063477a5c981461006d57806367e919b61461008b578063f2c9ecd8146100a9575b600080fd5b61006b60048036038101906100669190610187565b6100c7565b005b6100756100d1565b604051610082919061021e565b60405180910390f35b6100936100db565b6040516100a091906101fc565b60405180910390f35b6100b1610169565b6040516100be919061021e565b60405180910390f35b8060018190555050565b6000600154905090565b600080546100e890610292565b80601f016020809104026020016040519081016040528092919081815260200182805461011490610292565b80156101615780601f1061013657610100808354040283529160200191610161565b820191906000526020600020905b81548152906001019060200180831161014457829003601f168201915b505050505081565b60006032905090565b60008135905061018181610309565b92915050565b60006020828403121561019d5761019c6102f3565b5b60006101ab84828501610172565b91505092915050565b60006101bf82610239565b6101c98185610244565b93506101d981856020860161025f565b6101e2816102f8565b840191505092915050565b6101f681610255565b82525050565b6000602082019050818103600083015261021681846101b4565b905092915050565b600060208201905061023360008301846101ed565b92915050565b600081519050919050565b600082825260208201905092915050565b6000819050919050565b60005b8381101561027d578082015181840152602081019050610262565b8381111561028c576000848401525b50505050565b600060028204905060018216806102aa57607f821691505b602082108114156102be576102bd6102c4565b5b50919050565b7f4e487b7100000000000000000000000000000000000000000000000000000000600052602260045260246000fd5b600080fd5b6000601f19601f8301169050919050565b61031281610255565b811461031d57600080fd5b5056fea26469706673582212202ac2141034f74130699bdc82a078096f1d16cb4effa015aa7140e5ff799b7b2464736f6c63430008070033",
					"opcodes": "PUSH1 0x80 PUSH1 0x40 MSTORE PUSH1 0x40 MLOAD DUP1 PUSH1 0x40 ADD PUSH1 0x40 MSTORE DUP1 PUSH1 0xD DUP2 MSTORE PUSH1 0x20 ADD PUSH32 0x68656C6C6F206269616767696F00000000000000000000000000000000000000 DUP2 MSTORE POP PUSH1 0x0 SWAP1 DUP1 MLOAD SWAP1 PUSH1 0x20 ADD SWAP1 PUSH2 0x4F SWAP3 SWAP2 SWAP1 PUSH2 0x8B JUMP JUMPDEST POP CALLVALUE DUP1 ISZERO PUSH2 0x5C JUMPI PUSH1 0x0 DUP1 REVERT JUMPDEST POP PUSH1 0x40 MLOAD PUSH2 0x55C CODESIZE SUB DUP1 PUSH2 0x55C DUP4 CODECOPY DUP2 DUP2 ADD PUSH1 0x40 MSTORE DUP2 ADD SWAP1 PUSH2 0x7E SWAP2 SWAP1 PUSH2 0x143 JUMP JUMPDEST DUP1 PUSH1 0x1 DUP2 SWAP1 SSTORE POP POP PUSH2 0x1F7 JUMP JUMPDEST DUP3 DUP1 SLOAD PUSH2 0x97 SWAP1 PUSH2 0x17A JUMP JUMPDEST SWAP1 PUSH1 0x0 MSTORE PUSH1 0x20 PUSH1 0x0 KECCAK256 SWAP1 PUSH1 0x1F ADD PUSH1 0x20 SWAP1 DIV DUP2 ADD SWAP3 DUP3 PUSH2 0xB9 JUMPI PUSH1 0x0 DUP6 SSTORE PUSH2 0x100 JUMP JUMPDEST DUP3 PUSH1 0x1F LT PUSH2 0xD2 JUMPI DUP1 MLOAD PUSH1 0xFF NOT AND DUP4 DUP1 ADD OR DUP6 SSTORE PUSH2 0x100 JUMP JUMPDEST DUP3 DUP1 ADD PUSH1 0x1 ADD DUP6 SSTORE DUP3 ISZERO PUSH2 0x100 JUMPI SWAP2 DUP3 ADD JUMPDEST DUP3 DUP2 GT ISZERO PUSH2 0xFF JUMPI DUP3 MLOAD DUP3 SSTORE SWAP2 PUSH1 0x20 ADD SWAP2 SWAP1 PUSH1 0x1 ADD SWAP1 PUSH2 0xE4 JUMP JUMPDEST JUMPDEST POP SWAP1 POP PUSH2 0x10D SWAP2 SWAP1 PUSH2 0x111 JUMP JUMPDEST POP SWAP1 JUMP JUMPDEST JUMPDEST DUP1 DUP3 GT ISZERO PUSH2 0x12A JUMPI PUSH1 0x0 DUP2 PUSH1 0x0 SWAP1 SSTORE POP PUSH1 0x1 ADD PUSH2 0x112 JUMP JUMPDEST POP SWAP1 JUMP JUMPDEST PUSH1 0x0 DUP2 MLOAD SWAP1 POP PUSH2 0x13D DUP2 PUSH2 0x1E0 JUMP JUMPDEST SWAP3 SWAP2 POP POP JUMP JUMPDEST PUSH1 0x0 PUSH1 0x20 DUP3 DUP5 SUB SLT ISZERO PUSH2 0x159 JUMPI PUSH2 0x158 PUSH2 0x1DB JUMP JUMPDEST JUMPDEST PUSH1 0x0 PUSH2 0x167 DUP5 DUP3 DUP6 ADD PUSH2 0x12E JUMP JUMPDEST SWAP2 POP POP SWAP3 SWAP2 POP POP JUMP JUMPDEST PUSH1 0x0 DUP2 SWAP1 POP SWAP2 SWAP1 POP JUMP JUMPDEST PUSH1 0x0 PUSH1 0x2 DUP3 DIV SWAP1 POP PUSH1 0x1 DUP3 AND DUP1 PUSH2 0x192 JUMPI PUSH1 0x7F DUP3 AND SWAP2 POP JUMPDEST PUSH1 0x20 DUP3 LT DUP2 EQ ISZERO PUSH2 0x1A6 JUMPI PUSH2 0x1A5 PUSH2 0x1AC JUMP JUMPDEST JUMPDEST POP SWAP2 SWAP1 POP JUMP JUMPDEST PUSH32 0x4E487B7100000000000000000000000000000000000000000000000000000000 PUSH1 0x0 MSTORE PUSH1 0x22 PUSH1 0x4 MSTORE PUSH1 0x24 PUSH1 0x0 REVERT JUMPDEST PUSH1 0x0 DUP1 REVERT JUMPDEST PUSH2 0x1E9 DUP2 PUSH2 0x170 JUMP JUMPDEST DUP2 EQ PUSH2 0x1F4 JUMPI PUSH1 0x0 DUP1 REVERT JUMPDEST POP JUMP JUMPDEST PUSH2 0x356 DUP1 PUSH2 0x206 PUSH1 0x0 CODECOPY PUSH1 0x0 RETURN INVALID PUSH1 0x80 PUSH1 0x40 MSTORE CALLVALUE DUP1 ISZERO PUSH2 0x10 JUMPI PUSH1 0x0 DUP1 REVERT JUMPDEST POP PUSH1 0x4 CALLDATASIZE LT PUSH2 0x4C JUMPI PUSH1 0x0 CALLDATALOAD PUSH1 0xE0 SHR DUP1 PUSH4 0x3A885D79 EQ PUSH2 0x51 JUMPI DUP1 PUSH4 0x477A5C98 EQ PUSH2 0x6D JUMPI DUP1 PUSH4 0x67E919B6 EQ PUSH2 0x8B JUMPI DUP1 PUSH4 0xF2C9ECD8 EQ PUSH2 0xA9 JUMPI JUMPDEST PUSH1 0x0 DUP1 REVERT JUMPDEST PUSH2 0x6B PUSH1 0x4 DUP1 CALLDATASIZE SUB DUP2 ADD SWAP1 PUSH2 0x66 SWAP2 SWAP1 PUSH2 0x187 JUMP JUMPDEST PUSH2 0xC7 JUMP JUMPDEST STOP JUMPDEST PUSH2 0x75 PUSH2 0xD1 JUMP JUMPDEST PUSH1 0x40 MLOAD PUSH2 0x82 SWAP2 SWAP1 PUSH2 0x21E JUMP JUMPDEST PUSH1 0x40 MLOAD DUP1 SWAP2 SUB SWAP1 RETURN JUMPDEST PUSH2 0x93 PUSH2 0xDB JUMP JUMPDEST PUSH1 0x40 MLOAD PUSH2 0xA0 SWAP2 SWAP1 PUSH2 0x1FC JUMP JUMPDEST PUSH1 0x40 MLOAD DUP1 SWAP2 SUB SWAP1 RETURN JUMPDEST PUSH2 0xB1 PUSH2 0x169 JUMP JUMPDEST PUSH1 0x40 MLOAD PUSH2 0xBE SWAP2 SWAP1 PUSH2 0x21E JUMP JUMPDEST PUSH1 0x40 MLOAD DUP1 SWAP2 SUB SWAP1 RETURN JUMPDEST DUP1 PUSH1 0x1 DUP2 SWAP1 SSTORE POP POP JUMP JUMPDEST PUSH1 0x0 PUSH1 0x1 SLOAD SWAP1 POP SWAP1 JUMP JUMPDEST PUSH1 0x0 DUP1 SLOAD PUSH2 0xE8 SWAP1 PUSH2 0x292 JUMP JUMPDEST DUP1 PUSH1 0x1F ADD PUSH1 0x20 DUP1 SWAP2 DIV MUL PUSH1 0x20 ADD PUSH1 0x40 MLOAD SWAP1 DUP2 ADD PUSH1 0x40 MSTORE DUP1 SWAP3 SWAP2 SWAP1 DUP2 DUP2 MSTORE PUSH1 0x20 ADD DUP3 DUP1 SLOAD PUSH2 0x114 SWAP1 PUSH2 0x292 JUMP JUMPDEST DUP1 ISZERO PUSH2 0x161 JUMPI DUP1 PUSH1 0x1F LT PUSH2 0x136 JUMPI PUSH2 0x100 DUP1 DUP4 SLOAD DIV MUL DUP4 MSTORE SWAP2 PUSH1 0x20 ADD SWAP2 PUSH2 0x161 JUMP JUMPDEST DUP3 ADD SWAP2 SWAP1 PUSH1 0x0 MSTORE PUSH1 0x20 PUSH1 0x0 KECCAK256 SWAP1 JUMPDEST DUP2 SLOAD DUP2 MSTORE SWAP1 PUSH1 0x1 ADD SWAP1 PUSH1 0x20 ADD DUP1 DUP4 GT PUSH2 0x144 JUMPI DUP3 SWAP1 SUB PUSH1 0x1F AND DUP3 ADD SWAP2 JUMPDEST POP POP POP POP POP DUP2 JUMP JUMPDEST PUSH1 0x0 PUSH1 0x32 SWAP1 POP SWAP1 JUMP JUMPDEST PUSH1 0x0 DUP2 CALLDATALOAD SWAP1 POP PUSH2 0x181 DUP2 PUSH2 0x309 JUMP JUMPDEST SWAP3 SWAP2 POP POP JUMP JUMPDEST PUSH1 0x0 PUSH1 0x20 DUP3 DUP5 SUB SLT ISZERO PUSH2 0x19D JUMPI PUSH2 0x19C PUSH2 0x2F3 JUMP JUMPDEST JUMPDEST PUSH1 0x0 PUSH2 0x1AB DUP5 DUP3 DUP6 ADD PUSH2 0x172 JUMP JUMPDEST SWAP2 POP POP SWAP3 SWAP2 POP POP JUMP JUMPDEST PUSH1 0x0 PUSH2 0x1BF DUP3 PUSH2 0x239 JUMP JUMPDEST PUSH2 0x1C9 DUP2 DUP6 PUSH2 0x244 JUMP JUMPDEST SWAP4 POP PUSH2 0x1D9 DUP2 DUP6 PUSH1 0x20 DUP7 ADD PUSH2 0x25F JUMP JUMPDEST PUSH2 0x1E2 DUP2 PUSH2 0x2F8 JUMP JUMPDEST DUP5 ADD SWAP2 POP POP SWAP3 SWAP2 POP POP JUMP JUMPDEST PUSH2 0x1F6 DUP2 PUSH2 0x255 JUMP JUMPDEST DUP3 MSTORE POP POP JUMP JUMPDEST PUSH1 0x0 PUSH1 0x20 DUP3 ADD SWAP1 POP DUP2 DUP2 SUB PUSH1 0x0 DUP4 ADD MSTORE PUSH2 0x216 DUP2 DUP5 PUSH2 0x1B4 JUMP JUMPDEST SWAP1 POP SWAP3 SWAP2 POP POP JUMP JUMPDEST PUSH1 0x0 PUSH1 0x20 DUP3 ADD SWAP1 POP PUSH2 0x233 PUSH1 0x0 DUP4 ADD DUP5 PUSH2 0x1ED JUMP JUMPDEST SWAP3 SWAP2 POP POP JUMP JUMPDEST PUSH1 0x0 DUP2 MLOAD SWAP1 POP SWAP2 SWAP1 POP JUMP JUMPDEST PUSH1 0x0 DUP3 DUP3 MSTORE PUSH1 0x20 DUP3 ADD SWAP1 POP SWAP3 SWAP2 POP POP JUMP JUMPDEST PUSH1 0x0 DUP2 SWAP1 POP SWAP2 SWAP1 POP JUMP JUMPDEST PUSH1 0x0 JUMPDEST DUP4 DUP2 LT ISZERO PUSH2 0x27D JUMPI DUP1 DUP3 ADD MLOAD DUP2 DUP5 ADD MSTORE PUSH1 0x20 DUP2 ADD SWAP1 POP PUSH2 0x262 JUMP JUMPDEST DUP4 DUP2 GT ISZERO PUSH2 0x28C JUMPI PUSH1 0x0 DUP5 DUP5 ADD MSTORE JUMPDEST POP POP POP POP JUMP JUMPDEST PUSH1 0x0 PUSH1 0x2 DUP3 DIV SWAP1 POP PUSH1 0x1 DUP3 AND DUP1 PUSH2 0x2AA JUMPI PUSH1 0x7F DUP3 AND SWAP2 POP JUMPDEST PUSH1 0x20 DUP3 LT DUP2 EQ ISZERO PUSH2 0x2BE JUMPI PUSH2 0x2BD PUSH2 0x2C4 JUMP JUMPDEST JUMPDEST POP SWAP2 SWAP1 POP JUMP JUMPDEST PUSH32 0x4E487B7100000000000000000000000000000000000000000000000000000000 PUSH1 0x0 MSTORE PUSH1 0x22 PUSH1 0x4 MSTORE PUSH1 0x24 PUSH1 0x0 REVERT JUMPDEST PUSH1 0x0 DUP1 REVERT JUMPDEST PUSH1 0x0 PUSH1 0x1F NOT PUSH1 0x1F DUP4 ADD AND SWAP1 POP SWAP2 SWAP1 POP JUMP JUMPDEST PUSH2 0x312 DUP2 PUSH2 0x255 JUMP JUMPDEST DUP2 EQ PUSH2 0x31D JUMPI PUSH1 0x0 DUP1 REVERT JUMPDEST POP JUMP INVALID LOG2 PUSH5 0x6970667358 0x22 SLT KECCAK256 0x2A 0xC2 EQ LT CALLVALUE 0xF7 COINBASE ADDRESS PUSH10 0x9BDC82A078096F1D16CB 0x4E SELFDESTRUCT LOG0 ISZERO 0xAA PUSH18 0x40E5FF799B7B2464736F6C63430008070033 "
				},
				"gasEstimates": {
					"creation": {
						"codeDepositCost": "170800",
						"executionCost": "infinite",
						"totalCost": "infinite"
					},
					"external": {
						"getNumber()": "381",
						"getVar()": "2437",
						"setVar(uint256)": "22498",
						"var1()": "infinite"
					}
				},
				"methodIdentifiers": {
					"getNumber()": "f2c9ecd8",
					"getVar()": "477a5c98",
					"setVar(uint256)": "3a885d79",
					"var1()": "67e919b6"
				}
			},
			"storageLayout": {
				"storage": [
					{
						"astId": 4,
						"contract": "test/HelloWorld.sol:HelloWorld",
						"label": "var1",
						"offset": 0,
						"slot": "0",
						"type": "t_string_storage"
					},
					{
						"astId": 6,
						"contract": "test/HelloWorld.sol:HelloWorld",
						"label": "var2",
						"offset": 0,
						"slot": "1",
						"type": "t_uint256"
					}
				],
				"types": {
					"t_string_storage": {
						"encoding": "bytes",
						"label": "string",
						"numberOfBytes": "32"
					},
					"t_uint256": {
						"encoding": "inplace",
						"label": "uint256",
						"numberOfBytes": "32"
					}
				}
			},
			"userdoc": {
				"kind": "user",
				"methods": {},
				"version": 1
			}
		}
	}
}